S00C0000444134412E737265631E
S11300000C9434000C9446000C9446000C94460066
S11300100C9490000C9446000C9446000C944600FA
S11300200C9446000C9446000C9446000C94460034
S11300300C9446000C9446000C9446000C94460024
S11300400C9446000C9446000C9446000C94460014
S11300500C9446000C9446000C9446000C94460004
S11300600C9446000C94460011241FBECFEFD8E038
S1130070DEBFCDBF21E0A0E0B1E001C01D92A430FD
S1130080B207E1F70E946A000C94B7000C940000D8
S1130090569A399A84B5836884BDECE6F0E0808191
S11300A082608083E8E6F0E080818260808385B5A9
S11300B0856085BD089587B117B8419AECE7F0E0F3
S11300C0808180648083EAE7F0E0808187688083B0
S11300D0789408950E945B000E944800EAE7F0E0EB
S11300E0A8E7B0E080910001909101010197B1F47B
S11300F0808180648083808184FFFDCF80818061E2
S113010080838D919C9111979093030180930201B8
S1130110809102019091030117BCE4CF17BCE2CF98
S11301201F920F920FB60F9211242F938F939F93C8
S1130130319915C02FEF81EE94E02150804090401A
S1130140E1F700C00000319BFECF80910001909147
S1130150010121E0822790930101809300019F9186
S11301608F912F910F900FBE0F901F901895F894B8
S1050170FFCFBB
S9030000FC
