S00D00005461736B322E7372656352
S11300000C9434000C9446000C9446000C94460066
S11300100C9446000C9446000C9446000C94460044
S11300200C9446000C9446000C9446000C94460034
S11300300C9446000C9446000C9446000C94460024
S11300400C9446000C9446000C9446000C94460014
S11300500C9446000C9446000C9446000C94460004
S11300600C9446000C94460011241FBECFEFD8E038
S1130070DEBFCDBF21E0A0E0B1E001C01D92A03001
S1130080B207E1F70E945A000C9486000C94000019
S113009082EA809380008BE1809381000895EAE7EF
S11300A0F0E0808187688083ECE7F0E08081806401
S11300B0808308950E944F000E944800EAE7F0E020
S11300C046E850E027E833E1C8E7D0E008E810E06C
S11300D0808180648083808184FFFDCF8081806102
S11300E08083DA0111963C932E93219A8881998119
S11300F0D80111969C938E93BFEF61EE84E0B150CA
S113010060408040E1F700C00000E2CFF894FFCFE8
S9030000FC
