S01000006D69647465726D322E73726563F0
S11300000C9434000C9451000C9451000C94510045
S11300100C9451000C9451000C9451000C94510018
S11300200C9451000C9451000C9451000C94510008
S11300300C9451000C9451000C9451000C945100F8
S11300400C9451000C9451000C9451000C945100E8
S11300500C9451000C9451000C9451000C945100D8
S11300600C9451000C94510011241FBECFEFD8E022
S1130070DEBFCDBF11E0A0E0B1E0E2EAFAE002C0E9
S113008005900D92AC3EB107D9F722E0ACEEB1E099
S113009001C01D92A43FB207E1F70E94B8010C947D
S11300A04F050C9400001092C50088E08093C400B2
S11300B086E08093C20088E18093C1000895809314
S11300C0C600E0ECF0E0808185FFFDCF0895CF937A
S11300D0DF93EC018881882331F021960E945F0030
S11300E089918111FBCFDF91CF910895ECEBF0E082
S11300F0108294EA908390819923ECF79091B9004F
S1130100987F9830A1F48093BB0084E88093BC006E
S1130110ECEBF0E080818823ECF79091B900987FB4
S1130120983139F081E0903429F480E0089581E039
S1130130089580E008958093BB0084E88093BC0018
S1130140ECEBF0E080818823ECF79091B900987F84
S113015081E0983209F480E0089584EC8093BC0037
S1130160ECEBF0E080818823ECF78091BB000895EC
S113017084E88093BC00ECEBF0E080818823ECF70A
S11301808091BB000895CF92DF92FF920F931F934B
S1130190CF93DF93C62F6A0189010E947600F82E5F
S11301A0811115C08C2F0E949B000115110559F077
S11301B0E6010C0D1D1D89910E949B0081110AC04E
S11301C0C017D107C1F784E98093BC0005C0FF24A0
S11301D0F39402C0FF24F3948F2DDF91CF911F91EC
S11301E00F91FF90DF90CF900895AF92BF92DF926E
S11301F0EF92FF920F931F93CF93DF93182F062F45
S11302005A01E9010E947600811122C0802F0E94C8
S11302109B00812F81600E947600D82E81111BC023
S11302208E010150110951F0E5017501E00EF11E36
S11302300E94AD008993EC16FD06D1F7E501C00FCD
S1130240D11F0E94B800888384E98093BC0005C054
S1130250DD24D39402C0DD24D3948D2DDF91CF917E
S11302601F910F91FF90EF90DF90BF90AF90089592
S1130270CF93DF931F92CDB7DEB721E030E0AE011C
S11302804F5F5F4F62E982E70E94F50089818B3AF4
S113029009F0FFCF83E0898321E030E0AE014F5FB6
S11302A05F4F60E882E70E94C30081E0898321E018
S11302B030E0AE014F5F5F4F6FE882E70E94C300FA
S11302C08BED898321E030E0AE014F5F5F4F61E841
S11302D082E70E94C3000F90DF91CF9108950F939E
S11302E01F93CF93DF9382E70E94760084E90E94F4
S11302F09B000CEB10E0D4E9F801D08383E70E9463
S113030076000E94AD00C82F0E94AD002C2F30E073
S1130310382B3093F3022093F2020E94AD00C82FD1
S11303200E94AD002C2F30E0382B3093F102209343
S1130330F0020E94AD00C82F0E94AD002C2F30E0C7
S1130340382B3093EF022093EE020E94AD00C82FA9
S11303500E94AD002C2F30E0382B3093ED01209318
S1130360EC01F801D083DF91CF911F910F91089593
S113037088E48093B8000E9453000E94380180E012
S113038091E00E9467002FEF83ED90E321508040BD
S11303909040E1F700C0000085E091E00E94670012
S11303A02FEF83ED90E3215080409040E1F700C0AF
S11303B0000083E191E00E9467002FEF8FE493EC4B
S11303C0215080409040E1F700C000008EE191E0B0
S11303D00E9467002FEF8BE792E921508040904004
S11303E0E1F700C0000004E711E0FF24F394CEEE2F
S11303F0D1E00E946F0187E391E00E9467002FEF34
S11304008BE792E9215080409040E1F700C0000062
S113041083E691E00E9467002FEF83ED90E3215083
S113042080409040E1F700C000008091ED018F937F
S11304308091EC018F938091EF028F938091EE0273
S11304408F938091F1028F938091F0028F9380912A
S1130450F3028F938091F2028F931F930F93FF9275
S11304601F92DF93CF930E945702CE010E94670030
S11304709FEF23ED80E3915020408040E1F700C0DE
S113048000008DED91E00E9467009FEF23ED80E373
S1130490915020408040E1F700C000008DB79EB726
S11304A00E960FB6F8949EBF0FBE8DBFA2CFAEE0DE
S11304B0B0E0EDE5F2E00C9426050D891E898F89E4
S11304C0988D26E02C831A83098397FF02C080E06D
S11304D090E801979E838D83AE01455E5F4F698DE1
S11304E07A8DCE0101960E9487024D815E8157FD6F
S11304F00AC02F813885421753070CF49A01F8017A
S1130500E20FF31F10822E96E4E00C944205ABE058
S1130510B0E0EDE8F2E00C9418056C017B018A016F
S1130520FC0117821682838181FFCCC1CE01019622
S11305303C01F6019381F70193FD859193FF81912D
S11305407F01882309F4BAC1853239F493FD85917A
S113055093FF81917F01853229F4B60190E00E94D6
S11305607E04E7CF912C212C312CFFE1F315D8F038
S11305708B3279F038F4803279F08332A1F4232D70
S113058020611DC08D3261F0803369F4232D216018
S113059016C0832D8260382EE32DE4603E2E2AC0DF
S11305A0F32DF8601DC037FC2DC020ED280F2A3034
S11305B040F08E32B9F436FC81C1232D2064322EF2
S11305C019C036FE06C08AE0989E200D1124922E92
S11305D011C0EAE02E9E200D1124222EF32DF0628C
S11305E03F2E08C08C3621F4832D8068382E02C03B
S11305F0883641F4F70193FD859193FF81917F0142
S11306008111B3CF982F9F7D9554933028F40C5FBC
S11306101F4F9FE399830DC0833631F0833771F008
S1130620833509F059C021C0F801808189830E5FA8
S11306301F4F88248394912C530113C02801F2E0A6
S11306404F0E511CF801A080B18036FE03C0692D05
S113065070E002C06FEF7FEFC5010E9473044C018C
S11306608201F32DFF773F2E16C0280122E0420EAF
S1130670511CF801A080B18036FE03C0692D70E0E2
S113068002C06FEF7FEFC5010E9468044C01F32D97
S1130690F0683F2E820133FC1BC0822D90E0881647
S11306A09906B0F4B60180E290E00E947E042A9498
S11306B0F4CFF50137FC859137FE81915F01B601D6
S11306C090E00E947E0421102A9421E0821A91086D
S11306D08114910471F7E8C0843611F0893641F52C
S11306E0F80137FE07C060817181828193810C5FBC
S11306F01F4F08C060817181072E000C880B990B75
S11307000E5F1F4FF32DFF763F2E97FF09C0909584
S11307108095709561957F4F8F4F9F4FF0683F2E66
S11307202AE030E0A3010E94BA04882E861845C04E
S1130730853731F4232D2F7EB22E2AE030E025C0F8
S1130740932D997FB92E8F36C1F018F4883579F03E
S1130750B5C0803719F0883721F0B0C0E92FE061C7
S1130760BE2EB4FE0DC0FB2DF460BF2E09C034FEB6
S11307700AC0292F2660B22E06C028E030E005C04A
S113078020E130E002C020E132E0F801B7FE07C00A
S113079060817181828193810C5F1F4F06C06081EB
S11307A0718180E090E00E5F1F4FA3010E94BA04A4
S11307B0882E8618FB2DFF773F2E36FE0DC0232D85
S11307C02E7FA22E891458F434FE0BC032FC09C0CB
S11307D0832D8E7EA82E05C0B82CA32C03C0B82C64
S11307E001C0B92CA4FE0FC0FE01E80DF11D8081EB
S11307F0803321F49A2D997EA92E09C0A2FE06C049
S1130800B394B39404C08A2D867809F0B394A3FCFE
S113081011C0A0FE06C0B21488F4280C922C9B18B8
S11308200EC0B21460F4B60180E290E00E947E042F
S1130830B394F7CFB21418F42B1802C0982C212CBF
S1130840A4FE10C0B60180E390E00E947E04A2FEE4
S113085017C0A1FC03C088E790E002C088E590E0DF
S1130860B6010CC08A2D867859F0A1FE02C08BE235
S113087001C080E2A7FC8DE2B60190E00E947E04F4
S1130880891438F4B60180E390E00E947E049A94BF
S1130890F7CF8A94F301E80DF11D8081B60190E051
S11308A00E947E048110F5CF222009F442CEB601C5
S11308B080E290E00E947E042A94F6CFF6018681BD
S11308C0978102C08FEF9FEF2B96E2E10C943405E1
S11308D0FC010590615070400110D8F78095909507
S11308E08E0F9F1F0895FC0161507040019001100C
S11308F0D8F7809590958E0F9F1F08950F931F939F
S1130900CF93DF93FB01238121FD03C08FEF9FEF82
S11309102CC022FF16C0468157812481358142179D
S1130920530744F4A081B1819D012F5F3F4F318370
S113093020838C93268137812F5F3F4F3783268313
S113094014C08B01EC01FB010084F185E02D0995B5
S1130950892BE1F6D80116968D919C9117970196F3
S113096017969C938E931697CE01DF91CF911F918A
S11309700F910895FA01AA27283051F1203181F10D
S1130980E8946F936E7F6E5F7F4F8F4F9F4FAF4F93
S1130990B1E03ED0B4E03CD0670F781F891F9A1FA6
S11309A0A11D680F791F8A1F911DA11D6A0F711D5A
S11309B0811D911DA11D20D009F468943F912AE066
S11309C0269F11243019305D3193DEF6CF0108954E
S11309D0462F4770405D4193B3E00FD0C9F7F6CF7F
S11309E0462F4F70405D4A3318F0495D31FD405247
S11309F0419302D0A9F7EACFB4E0A69597958795DD
S1130A0077956795BA95C9F70097610571050895BB
S1130A109B01AC010A2E0694579547953795279567
S1130A20BA95C9F7620F731F841F951FA01D0895FF
S1130A302F923F924F925F926F927F928F929F92EA
S1130A40AF92BF92CF92DF92EF92FF920F931F93D8
S1130A50CF93DF93CDB7DEB7CA1BDB0B0FB6F89489
S1130A60DEBF0FBECDBF09942A88398848885F84C9
S1130A706E847D848C849B84AA84B984C884DF803A
S1130A80EE80FD800C811B81AA81B981CE0FD11D1E
S1130A900FB6F894DEBF0FBECDBFED010895F894F4
S1050AA0FFCF82
S1130AA241540D0A0041542B43574D4F44453D31A7
S1130AB20D0A0041542B43574C41500D0A00415436
S1130AC22B43574A41503D224C415354222C224F2E
S1130AD2564552220D0A0041542B43495053544166
S1130AE252543D22544350222C226170692E746860
S1130AF2696E67737065616B2E636F6D222C38307B
S1130B020D0A0041542B43495053454E443D323063
S1130B12300D0A004745542068747470733A2F2FBD
S1130B226170692E7468696E67737065616B2E6398
S1130B326F6D2F7570646174653F6170695F6B6579
S1130B42793D4E58304B5444573652484B465554CF
S1130B524643266669656C64313D2564266669658B
S1130B626C64323D2564266669656C64333D256494
S1130B72266669656C64343D25640D0A0041542B74
S10F0B82434950434C4F53450D0A0000FA
S9030000FC
